:020000040800F2
:100000000000032021600008855F0008935F00085E
:10001000995F00089F5F0008A55F000800000000CE
:10002000000000000000000000000000012C00089B
:10003000AB5F000800000000412E0008A92E000858
:10004000716000087160000871600008716000084C
:10005000716000087160000871600008716000083C
:100060007160000871600008B95F000871600008E5
:10007000716000087160000871600008716000081C
:10008000716000087160000871600008716000080C
:10009000716000087160000871600008C75F0008A7
:1000A00071600008E15F000871600008716000087D
:1000B00071600008716000087160000871600008DC
:1000C00071600008716000087160000871600008CC
:1000D00071600008716000087160000871600008BC
:1000E00071600008716000087160000871600008AC
:1000F000716000087160000871600008716000089C
:10010000716000087160000871600008716000088B
:10011000716000087160000871600008716000087B
:10012000716000087160000871600008716000086B
:10013000716000087160000871600008716000085B
:10014000716000087160000871600008716000084B
:10015000716000087160000871600008716000083B
:10016000716000087160000871600008716000082B
:1001700071600008716000087160000800000000F4
:10018000716000087160000871600008716000080B
:1001900071600008716000087160000871600008FB
:0C01A000716000087160000871600008C8
:1001B00010B5054C237833B9044B13B10448AFF3A1
:1001C00000800123237010BD1000002000000000FB
:1001D000E460000808B5034B1BB103490348AFF3C3
:1001E000008008BD0000000014000020E46000084A
:1001F00053B94AB9002908BF00281CBF4FF0FF318E
:100200004FF0FF3000F07AB9ADF1080C6DE904CE83
:1002100000F006F8DDF804E0DDE9022304B07047E1
:100220002DE9F0478C460D460446089E002B51D11F
:100230008A4217466DD9B2FA82FEBEF1000F0BD08A
:10024000CEF1200C01FA0EF520FA0CFC02FA0EF7A2
:100250004CEA050C00FA0EF44FEA174A250CBCFBD9
:10026000FAF81FFA87F90AFB18CC45EA0C4508FB97
:1002700009F3AB420AD9ED1908F1FF3280F023816E
:10028000AB4240F22081A8F102083D44ED1AA4B22D
:10029000B5FBFAF00AFB105544EA054400FB09F9E6
:1002A000A14509D9E41900F1FF3380F00A81A14585
:1002B00040F2078102383C44A4EB090440EA0840BC
:1002C0000021002E61D024FA0EF400233460736004
:1002D000BDE8F0878B4207D9002E54D0002186E874
:1002E00021000846BDE8F087B3FA83F1002940F009
:1002F0008E80AB4202D3824200F2FA80841A65EB10
:1003000003050120AC46002E3FD086E81010BDE862
:10031000F08712B90127B7FBF2F7B7FA87FEBEF1F3
:10032000000F34D1EB1B3A0C1FFA87FC0121B3FB01
:10033000F2F8250C02FB183345EA03450CFB08F3E1
:10034000AB4207D9ED1908F1FF3002D2AB4200F2FF
:10035000D1808046ED1AA3B2B5FBF2F002FB105536
:1003600043EA05440CFB00FCA44507D9E41900F15D
:10037000FF3302D2A44500F2B8801846A4EB0C0467
:1003800040EA08409DE731463046BDE8F087CEF1AF
:10039000200405FA0EF307FA0EF720FA04F83A0CD7
:1003A00025FA04F448EA0308B4FBF2F14FEA1845D1
:1003B00002FB11441FFA87FC45EA044501FB0CF3DC
:1003C000AB4200FA0EF409D9ED1901F1FF3080F0CB
:1003D0008A80AB4240F2878002393D44EB1A1FFA13
:1003E00088F5B3FBF2F002FB103345EA034500FB4E
:1003F0000CF3AB4207D9ED1900F1FF386FD2AB42D5
:100400006DD902383D44EB1A40EA01418FE7C1F152
:10041000200722FA07F88B4005FA01F448EA0303A3
:1004200020FA07FE4FEA134CFD404EEA040EB5FBDE
:10043000FCF94FEA1E440CFB19551FFA83F844EAF5
:10044000054509FB08F4AC4202FA01F200FA01FA90
:1004500008D9ED1809F1FF3043D2AC4241D9A9F1D6
:1004600002091D442D1B1FFA8EFEB5FBFCF00CFB90
:1004700010554EEA054400FB08F8A04507D9E418DA
:1004800000F1FF3529D2A04527D902381C4440EAA3
:100490000940A4EB0804A0FB02894C45C6464D4622
:1004A00015D312D056B1BAEB0E0364EB050404FA6F
:1004B00007F7CB401F43CC40376074600021BDE894
:1004C000F0871846F8E69046E0E6C245EAD2B8EB77
:1004D000020E69EB03050138E4E72846D7E74046FA
:1004E00091E78146BEE7014678E702383C4445E79C
:1004F000084608E7A8F102083D442BE7704700BF13
:1005000080B500AF0E4A0E4B1B6843F400731360B6
:100510000B4A0B4B1B6843F480631360084A084B7B
:100520001B6843F480731360032000F0D6F80020AA
:1005300005F0CEFC05F0DCFB0023184680BD00BFB3
:10054000003C024080B400AF064B1B781A46064BB5
:100550001B681344044A136000BFBD465DF8047B6A
:10056000704700BF04000020344A002080B400AF70
:10057000034B1B681846BD465DF8047B704700BFFF
:10058000344A002080B485B000AF78607B6803F007
:100590000703FB600C4BDB68BB60BA684FF6FF03D8
:1005A0001340BB60FB681A02BB68134343F0BF6390
:1005B00043F40033BB60044ABB68D36000BF143708
:1005C000BD465DF8047B704700ED00E080B400AFED
:1005D000044BDB681B0A03F007031846BD465DF8B1
:1005E000047B704700ED00E080B483B000AF0346A9
:1005F000FB7197F90730002B0BDB094997F907309E
:100600005B09FA7902F01F02012000FA02F241F8B8
:10061000232000BF0C37BD465DF8047B704700BF48
:1006200000E100E080B483B000AF03463960FB71A5
:1006300097F90730002B0ADB0D4997F907303A6824
:10064000D2B21201D2B20B4483F800230AE0094966
:10065000FB7903F00F03043B3A68D2B21201D2B225
:100660000B441A7600BF0C37BD465DF8047B70471B
:1006700000E100E000ED00E080B489B000AFF86078
:10068000B9607A60FB6803F00703FB61FB69C3F1A3
:100690000703042B28BF0423BB61FB690433062B2B
:1006A00002D9FB69033B00E000237B610122BB69A7
:1006B00002FA03F35A1EBB681A407B699A40012173
:1006C0007B6901FA03F3591E7B680B4013431846FC
:1006D0002437BD465DF8047B704780B582B000AF1B
:1006E00078607868FFF74EFF00BF0837BD4680BDD1
:1006F00080B586B000AF0346B9607A60FB73002313
:100700007B61FFF763FF78617A68B9687869FFF702
:10071000B3FF024697F90F3011461846FFF782FFE4
:1007200000BF1837BD4680BD80B582B000AF03461C
:10073000FB7197F907301846FFF756FF00BF0837DF
:10074000BD4680BD80B582B000AF78607B68002B6D
:1007500001D1012314E07B681B79DBB2002B05D1AA
:100760007B6800225A71786805F0EEFA7B680222F5
:100770001A717B6800221A617B6801221A710023BA
:1007800018460837BD4680BD80B487B000AFF8601A
:10079000B9607A6000237B6100233B61FB685B7971
:1007A000012B01D1022336E0FB6801225A71FB685C
:1007B00002221A71FB681B681B687B6140F6FE729F
:1007C0007B6802FA03F3DB437A6913407B61BB6801
:1007D0001A68BB685B6813433B613A697B6802FA3D
:1007E00003F37A6913437B61FB681B687A691A60BB
:1007F000FB681B68FA6812681168C0207A6800FA02
:1008000002F2D2430A401A60FB6801221A71FB68A7
:1008100000225A71002318461C37BD465DF8047B40
:100820007047000080B489B000AF78603960002361
:100830007B6100233B610023BB610023FB6177E107
:100840000122FB6902FA03F37B613B681A687B694A
:1008500013403B613A697B699A4240F066813B688C
:100860005B68012B0BD03B685B68022B07D03B68B1
:100870005B68112B03D03B685B68122B30D17B681F
:100880009B68BB61FB695B00032202FA03F3DB4355
:10089000BA691340BB613B68DA68FB695B0002FA26
:1008A00003F3BA691343BB617B68BA699A607B68DA
:1008B0005B68BB610122FB6902FA03F3DB43BA699F
:1008C0001340BB613B685B681B0903F00102FB69D5
:1008D00002FA03F3BA691343BB617B68BA695A60D1
:1008E0007B68DB68BB61FB695B00032202FA03F3F0
:1008F000DB43BA691340BB613B689A68FB695B00E4
:1009000002FA03F3BA691343BB617B68BA69DA6020
:100910003B685B68022B03D03B685B68122B23D1DA
:10092000FB69DA087B68083253F82230BB61FB6947
:1009300003F007039B000F2202FA03F3DB43BA69BB
:100940001340BB613B681A69FB6903F007039B0016
:1009500002FA03F3BA691343BB61FB69DA087B68E7
:100960000832B96943F822107B681B68BB61FB69D8
:100970005B00032202FA03F3DB43BA691340BB6155
:100980003B685B6803F00302FB695B0002FA03F358
:10099000BA691343BB617B68BA691A603B685B68DC
:1009A00003F08053002B00F0C0800023FB60654AF9
:1009B000644B5B6C43F480435364624B5B6C03F4A5
:1009C0008043FB60FB68604AFB699B08023352F876
:1009D0002330BB61FB6903F003039B000F2202FA83
:1009E00003F3DB43BA691340BB617B68574A934208
:1009F00037D07B68564A934231D07B68554A934240
:100A00002BD07B68544A934225D07B68534A93424B
:100A10001FD07B68524A934219D07B68514A934257
:100A200013D07B68504A93420DD07B684F4A934263
:100A300007D07B684E4A934201D1092312E00A2372
:100A400010E008230EE007230CE006230AE005234C
:100A500008E0042306E0032304E0022302E001236C
:100A600000E00023FA6902F0030292009340BA69A1
:100A70001343BB613449FB699B080233BA6941F8EF
:100A800023203C4B1B68BB613B69DB43BA691340C5
:100A9000BB613B685B6803F48033002B03D0BA6909
:100AA0003B691343BB61334ABB691360314B5B68DD
:100AB000BB613B69DB43BA691340BB613B685B6860
:100AC00003F40033002B03D0BA693B691343BB61C5
:100AD000284ABB695360274B9B68BB613B69DB437A
:100AE000BA691340BB613B685B6803F48013002B59
:100AF00003D0BA693B691343BB611E4ABB6993606B
:100B00001C4BDB68BB613B69DB43BA691340BB61CB
:100B10003B685B6803F40013002B03D0BA693B69A0
:100B20001343BB61134ABB69D360FB690133FB61AB
:100B3000FB690F2B7FF684AE00BF2437BD465DF8FE
:100B4000047B70470038024000380140000002403A
:100B50000004024000080240000C02400010024065
:100B60000014024000180240001C02400020024015
:100B700000240240003C014080B483B000AF7860A4
:100B80000B467B8013467B707B78002B03D07A88E2
:100B90007B689A6103E07B881A047B689A6100BFD6
:100BA0000C37BD465DF8047B7047000080B582B00D
:100BB00000AF0346FB80084B5A69FB881340002BAB
:100BC00006D0054AFB885361FB88184604F0B6FF3F
:100BD00000BF0837BD4680BD003C014080B586B0EF
:100BE00000AF78607B68002B01D101235BE27B685A
:100BF0001B6803F00103002B75D0A34B9B6803F027
:100C00000C03042B0CD0A04B9B6803F00C03082BA7
:100C100012D19D4B5B6803F48003B3F5800F0BD1B9
:100C2000994B1B6803F40033002B5BD07B685B6837
:100C3000002B57D1012336E27B685B68B3F5803F18
:100C400006D1914A904B1B6843F4803313601DE03A
:100C50007B685B68B3F5A02F0CD18B4A8A4B1B686D
:100C600043F480231360884A874B1B6843F4803326
:100C700013600BE0844A844B1B6823F480331360B9
:100C8000814A814B1B6823F4802313607B685B6877
:100C9000002B13D0FFF76AFC386108E0FFF766FC11
:100CA00002463B69D31A642B01D90323FBE1764B3F
:100CB0001B6803F40033002BF0D014E0FFF756FC60
:100CC000386108E0FFF752FC02463B69D31A642BF7
:100CD00001D90323E7E16C4B1B6803F40033002BBD
:100CE000F0D100E000BF7B681B6803F00203002B1B
:100CF00063D0654B9B6803F00C03002B0BD0624B59
:100D00009B6803F00C03082B1CD15F4B5B6803F45A
:100D10008003002B16D15C4B1B6803F00203002BF1
:100D200005D07B68DB68012B01D00123BBE156496C
:100D3000554B1B6823F0F8027B681B69DB001343EB
:100D40000B603AE07B68DB68002B20D04F4B012220
:100D50001A60FFF70BFC386108E0FFF707FC02465A
:100D60003B69D31A022B01D903239CE1464B1B6834
:100D700003F00203002BF0D04349434B1B6823F0E0
:100D8000F8027B681B69DB0013430B6015E03F4BE7
:100D900000221A60FFF7EAFB386108E0FFF7E6FB84
:100DA00002463B69D31A022B01D903237BE1364B60
:100DB0001B6803F00203002BF0D17B681B6803F073
:100DC0000803002B30D07B685B69002B16D0304BBA
:100DD00001221A60FFF7CAFB386108E0FFF7C6FB83
:100DE00002463B69D31A022B01D903235BE1264B50
:100DF0005B6F03F00203002BF0D015E0244B0022C0
:100E00001A60FFF7B3FB386108E0FFF7AFFB02465B
:100E10003B69D31A022B01D9032344E11A4B5B6FC0
:100E200003F00203002BF0D17B681B6803F004037E
:100E3000002B00F0A0800023FB75134B1B6C03F00C
:100E40008053002B0FD10023BB600F4A0E4B1B6C4D
:100E500043F0805313640C4B1B6C03F08053BB6056
:100E6000BB680123FB750B4B1B6803F48073002BDD
:100E700021D1084A074B1B6843F480731360FFF7C6
:100E800075FB386111E000BF0038024000004742A6
:100E9000800E474200700040FFF768FB02463B6946
:100EA000D31A022B01D90323FDE0814B1B6803F405
:100EB0008073002BF0D07B689B68012B06D17D4AA4
:100EC0007C4B1B6F43F0010313671CE07B689B683E
:100ED000052B0CD1774A774B1B6F43F00403136744
:100EE000744A744B1B6F43F0010313670BE0714AA4
:100EF000704B1B6F23F0010313676E4A6D4B1B6F22
:100F000023F0040313677B689B68002B15D0FFF761
:100F10002DFB38610AE0FFF729FB02463B69D31A33
:100F200041F28832934201D90323BCE0614B1B6F2D
:100F300003F00203002BEED014E0FFF717FB38613B
:100F40000AE0FFF713FB02463B69D31A41F28832ED
:100F5000934201D90323A6E0564B1B6F03F0020313
:100F6000002BEED1FB7D012B05D1524A514B1B6C5E
:100F700023F0805313647B689B69002B00F0928000
:100F80004C4B9B6803F00C03082B5CD07B689B697F
:100F9000022B41D1484B00221A60FFF7E7FA386173
:100FA00008E0FFF7E3FA02463B69D31A022B01D9A6
:100FB000032378E03F4B1B6803F00073002BF0D154
:100FC0003C497B68DA697B681B6A1A437B685B6A09
:100FD0009B011A437B689B6A5B08013B1B041A4315
:100FE0007B68DB6A1B0613434B60334B01221A609C
:100FF000FFF7BCFA386108E0FFF7B8FA02463B6930
:10100000D31A022B01D903234DE02A4B1B6803F0AE
:101010000073002BF0D045E0274B00221A60FFF749
:10102000A5FA386108E0FFF7A1FA02463B69D31A36
:10103000022B01D9032336E01E4B1B6803F000731B
:10104000002BF0D12EE07B689B69012B01D101239D
:1010500029E0184B5B68FB60FB6803F480027B6847
:10106000DB699A421CD1FB6803F03F027B681B6A74
:101070009A4215D1FA6847F6C07313407A68526AEB
:1010800093420DD1FB6803F440327B689B6A9A421D
:1010900006D1FB6803F070627B68DB6A9A4201D07C
:1010A000012300E0002318461837BD4680BD00BF6D
:1010B00000700040003802406000474280B584B0B4
:1010C00000AF786039607B68002B01D10123CCE050
:1010D000684B1B6803F00F023B689A420CD2654BC9
:1010E0003A68D2B21A70634B1B6803F00F023B6878
:1010F0009A4201D00123B8E07B681B6803F0020329
:10110000002B20D07B681B6803F00403002B05D064
:10111000594A594B9B6843F4E05393607B681B68C2
:1011200003F00803002B05D0534A534B9B6843F44C
:10113000604393605049504B9B6823F0F0027B68FA
:101140009B6813438B607B681B6803F00103002BD3
:1011500044D07B685B68012B07D1474B1B6803F4C5
:101160000033002B19D101237FE07B685B68022BE1
:1011700003D07B685B68032B07D13F4B1B6803F0F0
:101180000073002B09D101236FE03B4B1B6803F078
:101190000203002B01D1012367E03749364B9B68DE
:1011A00023F003027B685B6813438B60FFF7DEF973
:1011B000F8600AE0FFF7DAF90246FB68D31A41F259
:1011C0008832934201D903234FE02B4B9B6803F0F5
:1011D0000C027B685B689B009A42EBD1254B1B6835
:1011E00003F00F023B689A420CD9224B3A68D2B204
:1011F0001A70204B1B6803F00F023B689A4201D023
:10120000012332E07B681B6803F00403002B08D045
:101210001949194B9B6823F4E0527B68DB68134340
:101220008B607B681B6803F00803002B09D0124910
:10123000114B9B6823F460427B681B69DB001343FE
:101240008B6000F021F801460B4B9B681B0903F0F3
:101250000F030A4AD35C21FA03F3094A1360094BCE
:101260001B68184604F034FE002318461037BD46AC
:1012700080BD00BF003C024000380240046200080C
:101280000C000020000000202DE9F04F8FB000AFCF
:101290000023FB6200237B630023BB6200233B63CC
:1012A000624B9B6803F00C03042B07D0082B08D07B
:1012B000002B40F0B2805E4B3B63B1E05D4B3B6383
:1012C000AEE05A4B5B6803F03F03FB62574B5B6831
:1012D00003F48003002B4ED0544B5B689B094FF006
:1012E000000440F2FF114FF0000201EA030102EA9C
:1012F00004020B46144660017862786A40EAD360C3
:1013000078625B013B62D7E908345B1A64EB020444
:101310004FEA841949EA93694FEA8318B8EB030846
:1013200069EB04094FEAC903FB61FB6943EA58739F
:10133000FB614FEAC803BB61D7E9068918EB0108D6
:1013400049EB02094FEA49237B617B6943EAD853A1
:101350007B614FEA48233B61D7E90489404649460F
:10136000FB6A4FF000041A462346FEF741FF03468E
:101370000C467B6343E02D4B5B689B094FF00004F8
:1013800040F2FF114FF0000201EA030102EA0402F9
:101390000B4614466001F860F86840EAD360F860D4
:1013A0005B01BB60D7E902345B1A64EB0204A6015F
:1013B00046EA93669D01ED1A66EB0406F3007B6036
:1013C0007B6843EA55737B60EB003B6097E8600005
:1013D0006D1846EB02064FEA862B4BEA955B4FEA07
:1013E000852A55465E4628463146FB6A4FF0000482
:1013F0001A462346FEF7FCFE03460C467B630B4B66
:101400005B681B0C03F0030301335B00BB627A6B68
:10141000BB6AB2FBF3F33B6302E0054B3B6300BFE7
:101420003B6B18463C37BD46BDE8F08F00380240A4
:101430000024F40000127A0080B400AF034B1B6854
:101440001846BD465DF8047B704700BF0C000020C5
:1014500080B500AFFFF7F0FF0146054B9B689B0A84
:1014600003F00703034AD35C21FA03F3184680BD57
:10147000003802401462000880B500AFFFF7DCFFBF
:101480000146054B9B685B0B03F00703034AD35CE3
:1014900021FA03F3184680BD0038024014620008A8
:1014A00080B483B000AF786039607B680F221A6027
:1014B000124B9B6803F003027B685A600F4B9B68DA
:1014C00003F0F0027B689A600C4B9B6803F4E052D7
:1014D0007B68DA60094B9B68DB0803F4E0527B68A9
:1014E0001A61074B1B6803F00F023B681A6000BFCC
:1014F0000C37BD465DF8047B704700BF00380240E2
:10150000003C024080B582B000AF78607B68002B61
:1015100001D101231DE07B6893F83D30DBB2002B45
:1015200006D17B68002283F83C20786800F015F82B
:101530007B68022283F83D207B681A687B6804334D
:101540001946104600F068F97B68012283F83D20B7
:10155000002318460837BD4680BD80B483B000AF75
:10156000786000BF0C37BD465DF8047B704780B4DF
:1015700085B000AF78607B681B687A681268D268B3
:1015800042F00102DA607B681B689B6803F0070386
:10159000FB60FB68062B07D07B681B687A681268C3
:1015A000126842F001021A60002318461437BD4643
:1015B0005DF8047B704780B582B000AF78607B68CF
:1015C0001B681B6903F00203022B22D17B681B6896
:1015D000DB6803F00203022B1BD17B681B686FF0F2
:1015E00002021A617B6801221A777B681B689B697B
:1015F00003F00303002B03D0786800F0EEF805E059
:10160000786800F0E0F8786800F0F1F87B68002274
:101610001A777B681B681B6903F00403042B22D133
:101620007B681B68DB6803F00403042B1BD17B6819
:101630001B686FF004021A617B6802221A777B68CC
:101640001B689B6903F44073002B03D0786800F09B
:10165000C4F805E0786800F0B6F8786800F0C7F8DC
:101660007B6800221A777B681B681B6903F00803FC
:10167000082B22D17B681B68DB6803F00803082B6A
:101680001BD17B681B686FF008021A617B6804221B
:101690001A777B681B68DB6903F00303002B03D018
:1016A000786800F09AF805E0786800F08CF87868BF
:1016B00000F09DF87B6800221A777B681B681B6925
:1016C00003F01003102B22D17B681B68DB6803F04A
:1016D0001003102B1BD17B681B686FF010021A617E
:1016E0007B6808221A777B681B68DB6903F4407308
:1016F000002B03D0786800F070F805E0786800F0FF
:1017000062F8786800F073F87B6800221A777B68CB
:101710001B681B6903F00103012B0ED17B681B685A
:10172000DB6803F00103012B07D17B681B686FF0B6
:1017300001021A61786804F0C1FA7B681B681B69B2
:1017400003F08003802B0ED17B681B68DB6803F0FD
:101750008003802B07D17B681B686FF080021A61C1
:10176000786800F003F97B681B681B6903F040038D
:10177000402B0ED17B681B68DB6803F04003402BD5
:1017800007D17B681B686FF040021A61786800F02F
:1017900038F87B681B681B6903F02003202B0ED1EF
:1017A0007B681B68DB6803F02003202B07D17B6874
:1017B0001B686FF020021A61786800F0CDF800BF56
:1017C0000837BD4680BD80B483B000AF786000BFED
:1017D0000C37BD465DF8047B704780B483B000AF22
:1017E000786000BF0C37BD465DF8047B704780B45D
:1017F00083B000AF786000BF0C37BD465DF8047B56
:10180000704780B483B000AF786000BF0C37BD462E
:101810005DF8047B7047000080B485B000AF78604D
:1018200039607B681B68FB607B68404A934213D039
:101830007B68B3F1804F0FD07B683D4A93420BD059
:101840007B683C4A934207D07B683B4A934203D073
:101850007B683A4A934208D1FB6823F07003FB602F
:101860003B685B68FA681343FB607B682F4A9342CE
:101870002BD07B68B3F1804F27D07B682C4A9342F2
:1018800023D07B682B4A93421FD07B682A4A93421D
:101890001BD07B68294A934217D07B68284A934221
:1018A00013D07B68274A93420FD07B68264A934225
:1018B0000BD07B68254A934207D07B68244A934229
:1018C00003D07B68234A934208D1FB6823F440731A
:1018D000FB603B68DB68FA681343FB60FB6823F03E
:1018E00080023B685B691343FB607B68FA681A609F
:1018F0003B689A687B68DA623B681A687B689A6220
:101900007B680A4A934203D07B680C4A934203D116
:101910003B681A697B681A637B6801225A6100BFC1
:101920001437BD465DF8047B704700BF00000140DE
:101930000004004000080040000C0040000401408A
:1019400000400140004401400048014000180040B0
:10195000001C00400020004080B483B000AF7860DD
:1019600000BF0C37BD465DF8047B704780B483B080
:1019700000AF786000BF0C37BD465DF8047B704750
:1019800080B582B000AF78607B68002B01D1012365
:101990003FE07B6893F83930DBB2002B06D17B68DF
:1019A000002283F83820786804F012FA7B68242239
:1019B00083F839207B681B687A681268D26822F441
:1019C0000052DA60786800F0B1F97B681B687A68C9
:1019D0001268126922F490421A617B681B687A6867
:1019E0001268526922F02A025A617B681B687A6881
:1019F0001268D26842F40052DA607B680022DA632F
:101A00007B68202283F839207B68202283F83A20E3
:101A1000002318460837BD4680BD80B588B002AFA8
:101A2000F860B9603B601346FB8000237B61FB6874
:101A300093F83930DBB2202B40F08280BB68002B5A
:101A400002D0FB88002B01D101237AE0FB6893F8D8
:101A50003830012B01D1022373E0FB68012283F8A7
:101A60003820FB680022DA63FB68212283F83920E2
:101A7000FEF77CFD7861FB68FA889A84FB68FA8837
:101A8000DA84FB68002283F8382041E0FB68DB8CB5
:101A90009BB2013B9AB2FB68DA84FB689B68B3F5A2
:101AA000805F21D13B6800937B6900228021F86828
:101AB00000F0F1F80346002B01D0032341E0BB689E
:101AC0003B61FB681B683A691288C2F308025A60DE
:101AD000FB681B69002B03D1BB680233BB6017E0B6
:101AE000BB680133BB6013E03B6800937B69002255
:101AF0008021F86800F0CFF80346002B01D00323C3
:101B00001FE0FB681A68BB68591CB9601B785360FA
:101B1000FB68DB8C9BB2002BB8D13B6800937B69E0
:101B200000224021F86800F0B6F80346002B01D0EF
:101B3000032306E0FB68202283F83920002300E01D
:101B4000022318461837BD4680BD80B588B002AF65
:101B5000F860B9603B601346FB8000237B61FB6843
:101B600093F83A30DBB2202B40F09080BB68002B1A
:101B700002D0FB88002B01D1012388E0FB6893F899
:101B80003830012B01D1022381E0FB68012283F868
:101B90003820FB680022DA63FB68222283F83A20AF
:101BA000FEF7E4FC7861FB68FA889A85FB68FA889E
:101BB000DA85FB68002283F838205CE0FB68DB8D67
:101BC0009BB2013B9AB2FB68DA85FB689B68B3F570
:101BD000805F2BD13B6800937B6900222021F8684D
:101BE00000F059F80346002B01D003234FE0BB68F7
:101BF0003B61FB681B69002B0CD1FB681B685B68B1
:101C00009BB2C3F308039AB23B691A80BB680233E4
:101C1000BB6030E0FB681B685B689BB2DBB29AB2CA
:101C20003B691A80BB680133BB6024E03B680093CA
:101C30007B6900222021F86800F02DF80346002B74
:101C400001D0032323E0FB681B69002B08D1BB688C
:101C50005A1CBA60FA6812685268D2B21A700AE066
:101C6000BB685A1CBA60FA6812685268D2B202F0B5
:101C70007F02D2B21A70FB68DB8D9BB2002B9DD124
:101C8000FB68202283F83A20002300E00223184654
:101C90001837BD4680BD80B584B000AFF860B9602C
:101CA0003B601346FB712CE0BB69B3F1FF3F28D0CA
:101CB000BB69002B07D0FEF759FC02463B68D21ADD
:101CC000BB699A421DD9FB681B68FA681268D26822
:101CD00022F4D072DA60FB681B68FA6812685269F5
:101CE00022F001025A61FB68202283F83920FB6848
:101CF000202283F83A20FB68002283F8382003234F
:101D00000FE0FB681B681A68BB681A40BB689A4200
:101D10000CBF01230023DBB21A46FB799A42C3D0E1
:101D2000002318461037BD4680BD00002DE9F04F56
:101D3000A3B000AFF867FB6F1968FB6F1B681B69E6
:101D400023F44052FB6FDB6813430B61FB6F9A680F
:101D5000FB6F1B691A43FB6F5B691A43FB6FDB69FF
:101D60001343C7F88430FB6F1968FB6F1B68DB688F
:101D700023F4164222F00C02D7F884301343CB60D0
:101D8000FB6F1968FB6F1B685B6923F44072FB6F84
:101D90009B6913434B61FB6FDB69B3F5004F40F068
:101DA0007181FB6F1B68B44A934205D0FB6F1B68BF
:101DB000B24A934240F0B180FFF75EFBC7F8800063
:101DC000FB6F1D68D7F8803019464FF000020B46B4
:101DD0001446DB1844EB04045B1844EB0204E000F7
:101DE0007864786C40EA53707864DB003B64D7E930
:101DF000103413EB010844EB020940464946FB6FDF
:101E00005B684FF00004DB1844EB04041A462346D9
:101E1000FEF7EEF903460C461A46994BA3FB022344
:101E20005B091E01D7F8803019464FF000020B46BF
:101E30001446DB1844EB04045B1844EB0204E00096
:101E4000F863F86B40EA5370F863DB00BB63D7E9D3
:101E50000E3413EB010844EB020940464946FB6F80
:101E60005B684FF00004DB1844EB04041A46234679
:101E7000FEF7BEF903460C461A46814BA3FB02133C
:101E80005B09642101FB03F3D31ADB0032337C4A84
:101E9000A2FB03235B095B0003F4F8731E44D7F82D
:101EA000803019464FF000020B461446DB1844EB15
:101EB00004045B1844EB0204E0007863786B40EAAA
:101EC00053707863DB003B63D7E90C3413EB0108F4
:101ED00044EB020940464946FB6F5B684FF0000443
:101EE000DB1844EB04041A462346FEF781F9034647
:101EF0000C461A46624BA3FB02135B09642101FBEB
:101F000003F3D31ADB0032335D4AA2FB03235B09E0
:101F100003F007033344AB6040E2FFF799FAC7F8D8
:101F20008000FB6F1A683A67D7F8803019464FF087
:101F300000020B461446DB1844EB04045B1844EB28
:101F40000204E000F862F86A40EA5370F862DB00CD
:101F5000BB62D7E90A345D1844EB020628463146D5
:101F6000FB6F5B684FF00004DB1844EB04041A4677
:101F70002346FEF73DF903460C461A46404BA3FBA9
:101F800002235B091E01D7F8803019464FF000028A
:101F90000B461446DB1844EB04045B1844EB0204C4
:101FA0004FEAC40B4BEA537B4FEAC30A53465C46E5
:101FB00013EB010A44EB020B50465946FB6F5B687A
:101FC0004FF00004DB1844EB04041A462346FEF7E6
:101FD0000FF903460C461A46294BA3FB02135B0973
:101FE000642101FB03F3D31ADB003233244AA2FB42
:101FF00003235B095B0003F4F8731E44D7F88030B9
:1020000019464FF000020B461446DB1844EB04045B
:102010005B1844EB02044FEAC40949EA53794FEADA
:10202000C30843464C4613EB010844EB0209404603
:102030004946FB6F5B684FF00004DB1844EB040477
:102040001A462346FEF7D4F803460C461A460C4BB4
:10205000A3FB02135B09642101FB03F3D31ADB002A
:102060003233074AA2FB03235B0903F0070333441F
:102070003A6F936092E100BF0010014000140140EC
:102080001F85EB51FB6F1A68C14B9A4205D0FB6F5D
:102090001A68C04B9A4240F0BF80FFF7EDF9C7F8CD
:1020A0008000FB6F1E68D7F8803019464FF00002A1
:1020B0000B461446DB1844EB04045B1844EB0204A3
:1020C000E0007862786A40EA53707862DB003B6235
:1020D000D7E9083413EB010844EB020940464946AE
:1020E000FB6F5B684FF00004A200FA65FA6D42EAEC
:1020F0009372FA659B00BB65D7E91623FEF778F863
:1021000003460C461A46A44BA3FB02235B091D01A0
:10211000D7F8803019464FF000020B461446DB1802
:1021200044EB04045B1844EB0204E000F861F86936
:1021300040EA5370F861DB00BB61D7E9063413EB6A
:10214000010844EB020940464946FB6F5B684FF0CB
:102150000004A2007A657A6D42EA93727A659B0068
:102160003B65D7E91423FEF743F803460C461A46AD
:10217000894BA3FB02135B09642101FB03F3D31A10
:102180001B013233844AA2FB03235B0903F0F003F3
:102190001D44D7F8803019464FF000020B46144614
:1021A000DB1844EB04045B1844EB0204E0007861A4
:1021B000786940EA53707861DB003B61D7E9043409
:1021C00013EB010844EB020940464946FB6F5B688C
:1021D0004FF00004A200FA64FA6C42EA9372FA64C7
:1021E0009B00BB64D7E91223FEF702F803460C46B6
:1021F0001A46694BA3FB02135B09642101FB03F33D
:10220000D31A1B013233644AA2FB03235B0903F098
:102210000F032B44B360C1E0FFF71AF9C7F8800041
:10222000FB6F1B68BB65D7F8803019464FF0000282
:102230000B461446DB1844EB04045B1844EB020421
:10224000E60046EA5376DD002B4634465D1844EB43
:10225000020628463146FB6F5B684FF00004A5007C
:102260007D677D6F45EA93757D679C003C67D7E984
:102270001C23FDF7BDFF03460C461A46464BA3FB45
:1022800002135B091D01D7F8803019464FF0000298
:102290000B461446DB1844EB04045B1844EB0204C1
:1022A000E000F860F86840EA5370F860D800B86061
:1022B000D7E9023413EB010844EB020940464946D2
:1022C000FB6F5B684FF00004A600FE66FE6E46EAF8
:1022D0009376FE669C00BC66D7E91A23FDF788FF5B
:1022E00003460C461A462C4BA3FB02135B096421E0
:1022F00001FB03F3D31A1B013233274AA2FB03135A
:102300005B0903F0F0031D44D7F8803019464FF005
:1023100000020B461446DB1844EB04045B1844EB44
:102320000204E0007860786840EA53707860D80072
:10233000386097E8180013EB010844EB02094046A7
:102340004946FB6F5B684FF00004A6007E667E6E18
:1023500046EA93767E669C003C66D7E91823FDF733
:1023600047FF03460C461A460B4BA3FB02135B09BF
:10237000642101FB03F3D31A1B013233064AA2FB8B
:1023800003135B0903F00F032B44BA6D936005E060
:1023900000100140001401401F85EB5100BF8C3735
:1023A000BD46BDE8F08F00BF80B400AF00BFBD46A2
:1023B0005DF8047B7047000080B485B000AFEFF398
:1023C0000583BB60BB68002B0FD1EFF310837B60EC
:1023D0007B68002B05D1EFF311833B603B68002B3A
:1023E00007D00E4B1B68022B03D16FF00503FB6077
:1023F0000CE00A4B1B68002B05D1084B01221A6028
:102400000023FB6002E04FF0FF33FB60FB681846DF
:102410001437BD465DF8047B704700BF2C000020D8
:1024200080B584B000AFEFF30583BB60BB68002BC1
:102430000FD1EFF310837B607B68002B05D1EFF3A6
:1024400011833B603B68002B07D00F4B1B68022BAE
:1024500003D16FF00503FB6010E00B4B1B68012BF1
:1024600009D1FFF7A1FF084B02221A6001F01CFFFF
:102470000023FB6002E04FF0FF33FB60FB6818466F
:102480001037BD4680BD00BF2C00002080B590B045
:1024900004AFF860B9607A6000233B61EFF3058315
:1024A000FB61FB69002B40F08F80EFF31083BB6171
:1024B000BB69002B05D1EFF311837B617B69002B96
:1024C00003D0444B1B68022B7ED0FB68002B7BD0D3
:1024D0008023BB6218237B620023FB624FF0FF3333
:1024E0003B627B68002B45D07B681B68002B02D0C9
:1024F0007B681B68FB627B689B69002B02D07B6852
:102500009B697B627B6A002B08D07B6A382B05D8DD
:102510007B685B6803F00103002B01D0002354E0CB
:102520007B685B69002B03D07B685B699B08BB629F
:102530007B689B68002B0ED07B68DB685B2B0AD91D
:102540007B681B69002B06D07B685B69002B02D07F
:1025500001233B6210E07B689B68002B0CD17B68F9
:10256000DB68002B08D17B681B69002B04D100239A
:102570003B6201E000233B623B6A012B10D17B6888
:102580001B697A689268029201937B6A0093BB6828
:10259000BA6AF96AF86801F0B5FC03463B6113E0DA
:1025A0003B6A002B10D1BB6A9AB207F1100301936A
:1025B0007B6A0093BB68F96AF86801F0FDFC03468A
:1025C000012B01D000233B613B6918463037BD46E3
:1025D00080BD00BF2C00002080B586B000AF7860C1
:1025E000EFF305833B613B69002B0FD1EFF31083C1
:1025F000FB60FB68002B05D1EFF31183BB60BB6868
:10260000002B07D00A4B1B68022B03D16FF0050388
:102610007B6107E000237B617B68002B02D0786838
:1026200001F00EFE7B6918461837BD4680BD00BF1D
:102630002C00002080B58CB002AFF860B9607A60E1
:1026400000237B62EFF30583BB61BB69002B70D174
:10265000EFF310837B617B69002B05D1EFF31183CE
:102660003B613B69002B03D0344B1B68022B60D0CD
:10267000FB68002B5DD0BB68002B5AD04FF0FF33B6
:102680003B627B68002B29D07B689B68002B12D0B3
:102690007B68DB684F2B0ED97B681B69002B0AD047
:1026A0007B685A69FB68B96801FB03F39A4202D35D
:1026B00001233B6214E07B689B68002B10D17B6890
:1026C000DB68002B0CD17B681B69002B08D17B6871
:1026D0005B69002B04D100233B6201E000233B62D5
:1026E0003B6A012B0CD17B681A697B6899680023CF
:1026F00000930B46B968F86800F0A0FE786208E025
:102700003B6A002B05D10022B968F86800F009FF88
:1027100078627B6A002B0CD07B68002B03D07B682F
:102720001B68FB6101E00023FB61F969786A01F035
:102730008DFB7B6A18462837BD4680BD2C000020E3
:1027400080B58AB000AFF860B9603B601346FB719A
:10275000FB683B6200237B62EFF30583FB61FB694F
:10276000002B0FD1EFF31083BB61BB69002B05D1A8
:10277000EFF311837B617B69002B2CD0284B1B6806
:10278000022B28D13B6A002B05D0BB68002B02D05E
:102790003B68002B03D06FF003037B6239E000231A
:1027A0003B6107F110020023B968386A01F016F89E
:1027B0000346012B03D06FF002037B6229E03B69E3
:1027C000002B26D0174B4FF080521A60BFF34F8F6B
:1027D000BFF36F8F1DE03B6A002B02D0BB68002B5C
:1027E00003D16FF003037B6214E000233A68B968F9
:1027F000386A00F0F9FE0346012B0BD03B68002B32
:1028000003D06FF001037B6204E06FF002037B6290
:1028100000E000BF7B6A18462837BD4680BD00BF78
:102820002C00002004ED00E080B58AB000AFF86015
:10283000B9607A603B60FB683B6200237B62EFF328
:102840000583FB61FB69002B0FD1EFF31083BB61A4
:10285000BB69002B05D1EFF311837B617B69002BF2
:102860002CD0284B1B68022B28D13B6A002B05D0AB
:10287000BB68002B02D03B68002B03D06FF0030332
:102880007B6238E000233B6107F110031A46B96808
:10289000386A01F013F90346012B03D06FF00203ED
:1028A0007B6228E03B69002B25D0174B4FF080520C
:1028B0001A60BFF34F8FBFF36F8F1CE03B6A002B92
:1028C00002D0BB68002B03D16FF003037B6213E0DF
:1028D0003A68B968386A01F015F80346012B0BD045
:1028E0003B68002B03D06FF001037B6204E06FF0C4
:1028F00002037B6200E000BF7B6A18462837BD46B2
:1029000080BD00BF2C00002004ED00E080B588B041
:1029100000AF78607B68BB61BB69002B02D10023EC
:10292000FB611EE0EFF305837B617B69002B0FD118
:10293000EFF310833B613B69002B05D1EFF311836B
:10294000FB60FB68002B08D0084B1B68022B04D1EE
:10295000B86901F04DF9F86103E0B86901F02BF9AD
:10296000F861FB6918462037BD4680BD2C00002069
:1029700080B485B000AFF860B9607A60FB68074A40
:102980001A60BB68064A1A607B6880221A6000BF22
:102990001437BD465DF8047B704700BF300000204F
:1029A0008C00002080B485B000AFF860B9607A6018
:1029B000FB68074A1A60BB68064A1A607B684FF4D6
:1029C00080721A6000BF1437BD465DF8047B704703
:1029D0008C020020E802002080B483B000AF786051
:1029E0007B6803F108027B685A607B684FF0FF3216
:1029F0009A607B6803F108027B68DA607B6803F108
:102A000008027B681A617B6800221A6000BF0C37DD
:102A1000BD465DF8047B704780B483B000AF78603A
:102A20007B6800221A6100BF0C37BD465DF8047B4D
:102A3000704780B485B000AF786039607B685B68B0
:102A4000FB603B68FA685A60FB689A683B689A606A
:102A5000FB689B683A685A60FB683A689A603B6812
:102A60007A681A617B681B685A1C7B681A6000BF11
:102A70001437BD465DF8047B704780B485B000AF65
:102A8000786039603B681B68BB60BB68B3F1FF3F8F
:102A900003D17B681B69FB600CE07B680833FB603B
:102AA00002E0FB685B68FB60FB685B681A68BB68F8
:102AB0009A42F6D9FB685A683B685A603B685B6883
:102AC0003A689A603B68FA689A60FB683A685A60AC
:102AD0003B687A681A617B681B685A1C7B681A60BD
:102AE00000BF1437BD465DF8047B704780B485B0E5
:102AF00000AF78607B681B69FB607B685B687A6805
:102B000092689A607B689B687A6852685A60FB6832
:102B10005A687B689A4203D17B689A68FB685A605E
:102B20007B6800221A61FB681B685A1EFB681A60EA
:102B3000FB681B6818461437BD465DF8047B704778
:102B400080B485B000AFF860B9607A60FB68043B80
:102B5000FB60FB684FF080721A60FB68043BFB600F
:102B6000BB6823F00102FB681A60FB68043BFB6052
:102B70000C4AFB681A60FB68143BFB607A68FB68D0
:102B80001A60FB68043BFB60FB686FF002021A608E
:102B9000FB68203BFB60FB6818461437BD465DF8B8
:102BA000047B7047A92B000880B485B000AF0023D8
:102BB0007B60114B1B68B3F1FF3F09D04FF050030E
:102BC00083F31188BFF36F8FBFF34F8FFB60FEE776
:102BD0004FF0500383F31188BFF36F8FBFF34F8F14
:102BE000BB6000BF7B68002BFCD000BF1437BD4624
:102BF0005DF8047B704700BF080000200000000063
:102C0000074B19680868B0E8F04F80F30988BFF3F4
:102C10006F8F4FF0000080F311887047AFF3008092
:102C20000843002000BF00BF08480068006880F328
:102C300008884FF0000080F3148862B661B6BFF3D5
:102C40004F8FBFF36F8F00DF00BF00BF08ED00E0C4
:102C500080B586B000AF444B1B68444A934209D10B
:102C60004FF0500383F31188BFF36F8FBFF34F8F83
:102C70003B61FEE73C4B1B683D4A934209D14FF054
:102C8000500383F31188BFF36F8FBFF34F8FFB6047
:102C9000FEE7384B7B617B691B78DBB27B607B692D
:102CA000FF221A707B691B78DBB2FB70FB78DBB20A
:102CB00003F05003DAB2304B1A70304B07221A601F
:102CC00009E02E4B1B68013B2C4A1360FB78DBB2FA
:102CD0005B00DBB2FB70FB78DBB203F08003802B80
:102CE000EFD0264B1B68C3F10703042B09D04FF02C
:102CF000500383F31188BFF36F8FBFF34F8FBB6017
:102D0000FEE71E4B1B681B021C4A13601B4B1B6813
:102D100003F4E063194A13607B68DAB27B691A70C6
:102D2000174A174B1B6843F470031360144A144B83
:102D30001B6843F07043136000F0D6F8114B00227B
:102D40001A6000F0F5F8104A0F4B1B6843F040433F
:102D50001360FFF769FF01F07DFCFFF725FF0023FB
:102D600018461837BD4680BD00ED00E071C20F4126
:102D700070C20F4100E400E0E8060020EC060020ED
:102D800020ED00E00800002034EF00E080B483B0C4
:102D900000AF4FF0500383F31188BFF36F8FBFF381
:102DA0004F8F7B600E4B1B6801330D4A13600C4B39
:102DB0001B68012B0ED10B4B1B68DBB2002B09D01B
:102DC0004FF0500383F31188BFF36F8FBFF34F8F22
:102DD0003B60FEE700BF0C37BD465DF8047B7047E3
:102DE0000800002004ED00E080B483B000AF114B78
:102DF0001B68002B09D14FF0500383F31188BFF3F8
:102E00006F8FBFF34F8F7B60FEE70A4B1B68013B60
:102E1000084A1360074B1B68002B04D100233B605A
:102E20003B6883F3118800BF0C37BD465DF8047B17
:102E3000704700BF080000200000000000000000F4
:102E4000EFF30980BFF36F8F154B1A681EF0100F58
:102E500008BF20ED108A20E9F04F10602DE909002D
:102E60004FF0500080F31188BFF34F8FBFF36F8F87
:102E700001F0F0FB4FF0000080F3118809BC1968E5
:102E80000868B0E8F04F1EF0100F08BFB0EC108AD1
:102E900080F30988BFF36F8F704700BFAFF30080E6
:102EA0000843002000BF00BF80B582B000AF4FF0E4
:102EB000500383F31188BFF36F8FBFF34F8F7B6095
:102EC00001F010FB0346002B03D0064B4FF080525D
:102ED0001A6000233B603B6883F3118800BF08370A
:102EE000BD4680BD04ED00E080B400AF0B4B002276
:102EF0001A600B4B00221A600A4A0B4B1B680B49E5
:102F0000A1FB03139B09013B1360044B07221A60CA
:102F100000BFBD465DF8047B704700BF10E000E0D5
:102F200018E000E014E000E00C000020D34D621037
:102F3000DFF80C00016841F470010160704700BFC8
:102F400088ED00E080B485B000AFEFF30583FB604F
:102F5000FB680F2B13D9164AFB6813441B78FB72CE
:102F6000144B1B78FA7A9A4209D24FF0500383F33C
:102F70001188BFF36F8FBFF34F8F7B60FEE70E4B5F
:102F80001B6803F4E0620D4B1B689A4209D94FF0AD
:102F9000500383F31188BFF36F8FBFF34F8F3B60F4
:102FA000FEE700BF1437BD465DF8047B704700BFE5
:102FB000F0E300E0E80600200CED00E0EC06002065
:102FC00080B58AB000AF78600023FB6101F0D0F9D2
:102FD000574B1B68002B01D100F00CF9554B1A68B8
:102FE0007B681340002B40F08C807B68002B1CD04A
:102FF00008227B6813447B607B6803F00703002B87
:1030000013D07B6823F0070308337B607B6803F0F1
:103010000703002B09D04FF0500383F31188BFF34F
:103020006F8FBFF34F8F7B61FEE77B68002B68D00B
:10303000414B1B687A689A4263D8404B3B623F4BD6
:103040001B687B6204E07B6A3B627B6A1B687B6275
:103050007B6A5A687B689A4203D27B6A1B68002BA2
:10306000F1D1334B1B687A6A9A424AD03B6A1B689B
:1030700008221344FB617B6A1A683B6A1A607B6A08
:103080005A687B68D21A08235B009A421ED97A6A72
:103090007B681344BB61BB6903F00703002B09D0B5
:1030A0004FF0500383F31188BFF36F8FBFF34F8F3F
:1030B0003B61FEE77B6A5A687B68D21ABB695A603B
:1030C0007B6A7A685A60B86900F0F6F81A4B1A6899
:1030D0007B6A5B68D31A184A1360174B1A68184B3F
:1030E0001B689A4203D2144B1B68154A13607B6A13
:1030F0005A68104B1B681A437B6A5A607B6A00222D
:103100001A6001F043F9FB6903F00703002B09D0B3
:103110004FF0500383F31188BFF36F8FBFF34F8FCE
:10312000FB60FEE7FB6918462837BD4680BD00BF3F
:10313000F842002004430020FC420020F04200201E
:103140000043002080B586B000AF78607B687B616B
:103150007B68002B46D008235B427A6913447B616D
:103160007B693B613B695A68204B1B681340002B0D
:1031700009D14FF0500383F31188BFF36F8FBFF372
:103180004F8FFB60FEE73B691B68002B09D04FF0B7
:10319000500383F31188BFF36F8FBFF34F8FBB6072
:1031A000FEE73B695A68114B1B681340002B19D08E
:1031B0003B691B68002B15D13B695A680B4B1B6898
:1031C000DB431A403B695A6001F0D2F83B695A6808
:1031D000074B1B681344064A1360386900F06CF80B
:1031E00001F0D4F800BF1837BD4680BD044300206D
:1031F000FC42002080B485B000AF4FF47053BB6038
:10320000274BFB60FB6803F00703002B0CD0FB6827
:103210000733FB60FB6823F00703FB60BA68FB68B9
:10322000D31A1F4A1344BB60FB687B601D4A7B684E
:1032300013601C4B00225A607A68BB681344FB6021
:103240000822FB689B1AFB60FB6823F00703FB6006
:10325000FB68154A1360144B1B6800225A60124B1E
:103260001B6800221A607B683B603B68FA68D21AD0
:103270003B685A600C4B1A683B681A603B685B6895
:103280000A4A13603B685B68094A1360094B4FF0B8
:1032900000421A6000BF1437BD465DF8047B7047DA
:1032A000F0060020F0420020F842002000430020F9
:1032B000FC4200200443002080B485B000AF786059
:1032C000284BFB6002E0FB681B68FB60FB681A6828
:1032D0007B689A42F7D3FB68BB60FB685B68BA689F
:1032E0001A447B689A4208D1FB685A687B685B681D
:1032F0001A44FB685A60FB687B607B68BB607B6834
:103300005B68BA681A44FB681B689A4218D1FB686C
:103310001A68154B1B689A420DD07B685A68FB6887
:103320001B685B681A447B685A60FB681B681A68F4
:103330007B681A6008E00C4B1A687B681A6003E02F
:10334000FB681A687B681A60FA687B689A4202D048
:10335000FB687A681A6000BF1437BD465DF8047BCD
:10336000704700BFF0420020F842002080B584B0D2
:1033700000AF786039607B68FB60FB68002B09D187
:103380004FF0500383F31188BFF36F8FBFF34F8F5C
:10339000BB60FEE7FFF7FAFCFB681A68FB68DB6BB3
:1033A000F968096C01FB03F31A44FB689A60FB6837
:1033B00000229A63FB681A68FB685A60FB681A6807
:1033C000FB68DB6B013BF968096C01FB03F31A44F2
:1033D000FB68DA60FB68FF2283F84420FB68FF2269
:1033E00083F845203B68002B14D1FB681B69002B38
:1033F0001AD0FB681033184601F0D6F90346002BAB
:1034000012D00D4B4FF080521A60BFF34F8FBFF3B5
:103410006F8F09E0FB6810331846FFF7DDFAFB6891
:1034200024331846FFF7D8FAFFF7DEFC01231846CD
:103430001037BD4680BD00BF04ED00E080B58EB002
:1034400002AFF860B9607A603B60FB68002B09D17D
:103450004FF0500383F31188BFF36F8FBFF34F8F8B
:10346000BB62FEE73B68002B09D14FF0500383F3AA
:103470001188BFF36F8FBFF34F8F7B62FEE77B68CE
:10348000002B02D0BB68002B01D0012300E00023F9
:10349000002B09D14FF0500383F31188BFF36F8FD6
:1034A000BFF34F8F3B62FEE77B68002B02D1BB6806
:1034B000002B01D1012300E00023002B09D14FF0A4
:1034C000500383F31188BFF36F8FBFF34F8FFB61FE
:1034D000FEE750237B617B69502B09D04FF05003EE
:1034E00083F31188BFF36F8FBFF34F8FBB61FEE78C
:1034F0007B693B68FB62FB6A002B0DD0FB6A0122F3
:1035000083F8462097F83820FB6A009313467A68C0
:10351000B968F86800F044F8FB6A18463037BD46D1
:1035200080BD80B58AB002AFF860B9601346FB7108
:10353000FB68002B09D14FF0500383F31188BFF3D0
:103540006F8FBFF34F8F3B61FEE7BB68002B02D14B
:103550000023FB6104E0FB68BA6802FB03F3FB6134
:10356000FB6950331846FFF72BFDB861BB69002B90
:1035700011D0BB697B617B6950337B61BB690022E1
:1035800083F84620FA79BB69009313467A69B968D3
:10359000F86800F005F8BB6918462037BD4680BDC5
:1035A00080B584B000AFF860B9607A60FB70BB682A
:1035B000002B03D1BB69BA691A6002E0BB697A6863
:1035C0001A60BB69FA68DA63BB69BA681A640121D8
:1035D000B869FFF7CBFEBB69FA7883F84C2000BFCF
:1035E0001037BD4680BD000080B58EB000AFF860DA
:1035F000B9607A603B6000237B63FB683B633B6B95
:10360000002B09D14FF0500383F31188BFF36F8F64
:10361000BFF34F8FBB62FEE7BB68002B03D13B6B50
:103620001B6C002B01D1012300E00023002B09D1EA
:103630004FF0500383F31188BFF36F8FBFF34F8FA9
:103640007B62FEE73B68022B03D13B6BDB6B012BFC
:1036500001D1012300E00023002B09D14FF05003DA
:1036600083F31188BFF36F8FBFF34F8F3B62FEE789
:1036700001F050FA0346002B02D17B68002B01D1E8
:10368000012300E00023002B09D14FF0500383F306
:103690001188BFF36F8FBFF34F8FFB61FEE7FFF71A
:1036A00075FB3B6B9A6B3B6BDB6B9A4202D33B68BF
:1036B000022B29D13A68B968386B00F0B6FAF86283
:1036C0003B6B5B6A002B10D03B6B2433184601F038
:1036D0006BF80346002B13D03F4B4FF080521A601B
:1036E000BFF34F8FBFF36F8F0AE0FB6A002B07D049
:1036F000394B4FF080521A60BFF34F8FBFF36F8F7B
:10370000FFF772FB012363E07B68002B03D1FFF717
:103710006BFB00235CE07B6B002B06D107F11403ED
:10372000184601F0A3F801237B63FFF75DFB00F06F
:103730001FFEFFF72BFB3B6B93F844305BB2B3F1FA
:10374000FF3F03D13B6B002283F844203B6B93F88F
:1037500045305BB2B3F1FF3F03D13B6B002283F8EE
:103760004520FFF741FB3A1D07F1140311461846A7
:1037700001F092F80346002B24D1386B00F04DFB8A
:103780000346002B18D03B6B10337A68114618465D
:1037900000F0BCFF386B00F0D8FA00F0F7FD0346EC
:1037A000002B7FF47CAF0C4B4FF080521A60BFF3BC
:1037B0004F8FBFF36F8F72E7386B00F0C6FA00F0DF
:1037C000E5FD6CE7386B00F0C0FA00F0DFFD002388
:1037D00018463837BD4680BD04ED00E080B58EB098
:1037E00000AFF860B9607A603B60FB683B633B6B9D
:1037F000002B09D14FF0500383F31188BFF36F8F73
:10380000BFF34F8F7B62FEE7BB68002B03D13B6B9E
:103810001B6C002B01D1012300E00023002B09D1F8
:103820004FF0500383F31188BFF36F8FBFF34F8FB7
:103830003B62FEE73B68022B03D13B6BDB6B012B4A
:1038400001D1012300E00023002B09D14FF05003E8
:1038500083F31188BFF36F8FBFF34F8FFB61FEE7D8
:10386000FFF770FBEFF311824FF0500383F31188E1
:10387000BFF36F8FBFF34F8FBA617B61BB69FB6290
:103880003B6B9A6B3B6BDB6B9A4202D33B68022B20
:103890002CD13B6B93F8453087F82B303A68B968E8
:1038A000386B00F0C2F997F92B30B3F1FF3F12D11A
:1038B0003B6B5B6A002B16D03B6B2433184600F041
:1038C00073FF0346002B0ED07B68002B0BD07B6868
:1038D00001221A6007E097F82B300133DBB25AB2AD
:1038E0003B6B83F8452001237B6301E000237B636E
:1038F000FB6A3B613B6983F311887B6B1846383761
:10390000BD4680BD80B58CB000AFF860B9607A600C
:103910000023FB62FB68BB62BB6A002B09D14FF03E
:10392000500383F31188BFF36F8FBFF34F8F3B6258
:10393000FEE7BB68002B03D1BB6A1B6C002B01D1D7
:10394000012300E00023002B09D14FF0500383F343
:103950001188BFF36F8FBFF34F8FFB61FEE701F05C
:10396000D9F80346002B02D17B68002B01D101233B
:1039700000E00023002B09D14FF0500383F311889E
:10398000BFF36F8FBFF34F8FBB61FEE7FFF7FEF909
:10399000BB6A9B6B7B627B6A002B1FD0B968B86ADD
:1039A00000F0ADF97B6A5A1EBB6A9A63BB6A1B6959
:1039B000002B0FD0BB6A1033184600F0F5FE03460B
:1039C000002B07D03C4B4FF080521A60BFF34F8F53
:1039D000BFF36F8FFFF708FA012369E07B68002BC4
:1039E00003D1FFF701FA002362E0FB6A002B06D146
:1039F00007F11003184600F039FF0123FB62FFF7BF
:103A0000F3F900F0B5FCFFF7C1F9BB6A93F8443055
:103A10005BB2B3F1FF3F03D1BB6A002283F84420BD
:103A2000BB6A93F845305BB2B3F1FF3F03D1BB6A89
:103A3000002283F84520FFF7D7F93A1D07F110035C
:103A40001146184600F028FF0346002B23D1B86A20
:103A500000F0CDF90346002B17D0BB6A24337A68F7
:103A60001146184600F052FEB86A00F06EF900F0F8
:103A70008DFC0346002B89D10F4B4FF080521A600A
:103A8000BFF34F8FBFF36F8F80E7B86A00F05DF927
:103A900000F07CFC7AE7B86A00F057F900F076FC99
:103AA000B86A00F0A4F90346002B3FF46FAF00237F
:103AB00018463037BD4680BD04ED00E080B58EB0BD
:103AC00000AFF860B9607A60FB683B633B6B002B2A
:103AD00009D14FF0500383F31188BFF36F8FBFF309
:103AE0004F8F3B62FEE7BB68002B03D13B6B1B6C27
:103AF000002B01D1012300E00023002B09D14FF05E
:103B0000500383F31188BFF36F8FBFF34F8FFB61B7
:103B1000FEE7FFF717FAEFF311824FF0500383F33C
:103B20001188BFF36F8FBFF34F8FBA617B61BB69A1
:103B3000FB623B6B9B6BBB62BB6A002B2FD03B6B6A
:103B400093F8443087F82730B968386B00F0D7F81D
:103B5000BB6A5A1E3B6B9A6397F92730B3F1FF3F5C
:103B600012D13B6B1B69002B16D03B6B10331846F0
:103B700000F01AFE0346002B0ED07B68002B0BD002
:103B80007B6801221A6007E097F827300133DBB227
:103B90005AB23B6B83F8442001237B6301E000238E
:103BA0007B63FB6A3B613B6983F311887B6B18463F
:103BB0003837BD4680BD80B584B000AF78607B6883
:103BC000002B09D14FF0500383F31188BFF36F8F9F
:103BD000BFF34F8FBB60FEE7FFF7D8F87B689B6BA6
:103BE000FB60FFF701F9FB6818461037BD4680BD42
:103BF00080B487B000AF78607B687B617B69002B05
:103C000009D14FF0500383F31188BFF36F8FBFF3D7
:103C10004F8FFB60FEE77B699B6B3B613B691846FE
:103C20001C37BD465DF8047B704780B586B000AF99
:103C3000F860B9607A6000237B61FB689B6B3B6135
:103C4000FB681B6C002B0DD1FB681B68002B4DD152
:103C5000FB689B68184600F07BFF7861FB680022D8
:103C60009A6043E07B68002B19D1FB685868FB68B9
:103C70001B6C1A46B96802F021FAFB685A68FB68A7
:103C80001B6C1A44FB685A60FB685A68FB689B68A7
:103C90009A422BD3FB681A68FB685A6026E0FB68DF
:103CA000D868FB681B6C1A46B96802F007FAFB6813
:103CB000DA68FB681B6C5B421A44FB68DA60FB68DD
:103CC000DA68FB681B689A4207D2FB689A68FB684F
:103CD0001B6C5B421A44FB68DA607B68022B05D1DF
:103CE0003B69002B02D03B69013B3B613B695A1C9D
:103CF000FB689A637B6918461837BD4680BD80B55E
:103D000082B000AF786039607B681B6C002B18D0E4
:103D10007B68DA687B681B6C1A447B68DA607B68B6
:103D2000DA687B689B689A4203D37B681A687B6871
:103D3000DA607B68D9687B681B6C1A46386802F0C9
:103D4000BDF900BF0837BD4680BD80B584B000AF67
:103D50007860FFF71BF87B6893F84530FB7311E040
:103D60007B685B6A002B12D07B682433184600F016
:103D70001BFD0346002B01D000F0EEFDFB7B013B59
:103D8000DBB2FB7397F90F30002BE9DC00E000BFDA
:103D90007B68FF2283F84520FFF726F8FEF7F6FF41
:103DA0007B6893F84430BB7311E07B681B69002B80
:103DB00012D07B681033184600F0F6FC0346002B47
:103DC00001D000F0C9FDBB7B013BDBB2BB7397F9AF
:103DD0000E30002BE9DC00E000BF7B68FF2283F897
:103DE0004420FFF701F800BF1037BD4680BD80B505
:103DF00084B000AF7860FEF7C9FF7B689B6B002B37
:103E000002D10123FB6001E00023FB60FEF7ECFF21
:103E1000FB6818461037BD4680BD80B584B000AF42
:103E20007860FEF7B3FF7B689A6B7B68DB6B9A4226
:103E300002D10123FB6001E00023FB60FEF7D4FF09
:103E4000FB6818461037BD4680BD000080B485B0C1
:103E500000AF786039600023FB6014E00E4AFB6815
:103E600052F83330002B0BD10B49FB683A6841F80C
:103E70003320094AFB68DB0013447A685A6005E086
:103E8000FB680133FB60FB68072BE7D900BF1437E1
:103E9000BD465DF8047B7047384A002080B586B087
:103EA00000AFF860B9607A60FB687B61FEF76EFF77
:103EB0007B6993F844305BB2B3F1FF3F03D17B6978
:103EC000002283F844207B6993F845305BB2B3F15C
:103ED000FF3F03D17B69002283F84520FEF784FF72
:103EE0007B699B6B002B06D17B6924337A68B968A8
:103EF000184600F02FFC7869FFF727FF00BF18373E
:103F0000BD4680BD80B58EB004AFF860B9607A6000
:103F10003B607B6B002B09D14FF0500383F311887A
:103F2000BFF36F8FBFF34F8F3B62FEE7BB6B002B7E
:103F300009D14FF0500383F31188BFF36F8FBFF3A4
:103F40004F8FFB61FEE75C233B613B695C2B09D033
:103F50004FF0500383F31188BFF36F8FBFF34F8F80
:103F6000BB61FEE73B69BB6B002B1ED07B6B002B5C
:103F70001BD0BB6B7B627B6A7A6B1A637B6A022203
:103F800083F85920002303937B6A029307F11403FB
:103F900001933B6B00933B687A68B968F86800F05E
:103FA00050F8786A00F0DCF801E000237B617B695F
:103FB00018462837BD4680BD80B58CB004AFF86088
:103FC000B9603B601346FB80FB889B001846FEF7F8
:103FD000F7FF78617B69002B0ED05C20FEF7F0FFC5
:103FE000F861FB69002B03D0FB697A691A6305E06D
:103FF0007869FFF7A7F801E00023FB61FB69002B5C
:1040000017D0FB69002283F85920FA880023039314
:10401000FB690293FB6A0193BB6A00933B68B96832
:10402000F86800F00EF8F86900F09AF80123BB6117
:1040300002E04FF0FF33BB61BB6918462037BD4635
:1040400080BD80B588B000AFF860B9607A603B6031
:104050003B6B186B7B689B001A46A52102F039F870
:104060003B6B1A6B7B6803F18043013B9B0013445D
:10407000BB61BB6923F00703BB61BB6903F00703A6
:10408000002B09D04FF0500383F31188BFF36F8FDB
:10409000BFF34F8F7B61FEE7BB68002B1FD000236F
:1040A000FB6112E0BA68FB69134419783A6BFB694B
:1040B000134434330A461A70BA68FB6913441B78F8
:1040C000002B06D0FB690133FB61FB690F2BE9D99B
:1040D00000E000BF3B6B002283F8432003E03B6B12
:1040E000002283F83420BB6A372B01D93723BB6207
:1040F0003B6BBA6ADA623B6BBA6ADA643B6B0022EA
:104100001A653B6B04331846FEF786FC3B6B18338D
:104110001846FEF781FC3B6B3A6B1A61BB6AC3F130
:1041200038023B6B9A613B6B3A6B5A623B6B0022E5
:104130005A653B6B002283F858203A68F968B869E1
:10414000FEF7FEFC02463B6B1A60FB6A002B02D0B6
:10415000FB6A3A6B1A6000BF2037BD4680BD000085
:1041600080B582B000AF7860FEF710FE2D4B1B6863
:1041700001332C4A13602C4B1B68002B09D12A4AAF
:104180007B681360274B1B68012B10D100F008FCE3
:104190000DE0264B1B68002B09D1234B1B68DA6A04
:1041A0007B68DB6A9A4202D81F4A7B681360204B07
:1041B0001B6801331E4A13601D4B1A687B685A64E2
:1041C0007B68DA6A1B4B1B689A4203D97B68DB6AFF
:1041D000184A13607B68DA6A13469B0013449B00FD
:1041E000154A1A447B68043319461046FEF721FC31
:1041F000FEF7FAFD0D4B1B68002B0ED00A4B1B6817
:10420000DA6A7B68DB6A9A4207D20C4B4FF0805225
:104210001A60BFF34F8FBFF36F8F00BF0837BD46E3
:1042200080BD00BFDC47002008430020E847002095
:10423000F8470020E44700200C43002004ED00E094
:1042400080B584B000AF78600023FB607B68002BF2
:1042500016D0134B1B68002B09D04FF0500383F38B
:104260001188BFF36F8FBFF34F8FBB60FEE700F085
:104270007FF80021786800F0D7FC00F087F8F8603C
:10428000FB68002B07D1074B4FF080521A60BFF339
:104290004F8FBFF36F8F00BF1037BD4680BD00BF8B
:1042A0000448002004ED00E080B58AB004AF00238C
:1042B000BB6000237B603A46391D07F108031846AE
:1042C000FEF756FB39687B68BA68029201930023B7
:1042D000009300230A4620492048FFF713FE0246B8
:1042E0001F4B1A601E4B1B68002B02D001237B6101
:1042F00001E000237B617B69012B02D100F0E8FC27
:1043000078617B69012B15D14FF0500383F311883D
:10431000BFF36F8FBFF34F8F3B61124B4FF0FF32F4
:104320001A60114B01221A60104B00221A60FEF72E
:104330008FFC0DE07B69B3F1FF3F09D14FF05003D3
:1043400083F31188BFF36F8FBFF34F8FFB60FEE7DE
:1043500000BF1837BD4680BDFC60000871490008E9
:1043600000480020FC470020E8470020E0470020EC
:1043700080B400AF044B1B680133034A136000BFD5
:10438000BD465DF8047B70470448002080B584B0CA
:1043900000AF0023FB600023BB60414B1B68002B78
:1043A00009D14FF0500383F31188BFF36F8FBFF330
:1043B0004F8F3B60FEE7FEF7E9FC394B1B68013B82
:1043C000374A1360364B1B68002B62D1354B1B6894
:1043D000002B5ED02FE0344BDB68DB68FB60FB68B2
:1043E00018331846FEF782FBFB6804331846FEF7C5
:1043F0007DFBFB68DA6A2D4B1B689A4203D9FB6888
:10440000DB6A2A4A1360FB68DA6A13469B0013448E
:104410009B00274A1A44FB68043319461046FEF7EE
:1044200008FBFB68DA6A234B1B68DB6A9A4202D3FB
:10443000214B01221A601C4B1B68002BCBD1FB685F
:10444000002B01D000F046FB1C4B1B687B607B6897
:10445000002B10D000F046F80346002B02D0164B7C
:1044600001221A607B68013B7B607B68002BF1D1E5
:10447000124B00221A60104B1B68002B09D001233D
:10448000BB600F4B4FF080521A60BFF34F8FBFF3EA
:104490006F8FFEF7A9FCBB6818461037BD4680BD7C
:1044A00004480020DC4700209C470020E44700200F
:1044B0000C43002008430020F0470020EC47002078
:1044C00004ED00E080B483B000AF054B1B687B6057
:1044D0007B6818460C37BD465DF8047B704700BF0B
:1044E000E047002080B586B000AF00237B614E4BD3
:1044F0001B68002B40F088804C4B1B6801333B61EC
:104500004A4A3B6913603B69002B1FD1484B1B682B
:104510001B68002B09D04FF0500383F31188BFF3C1
:104520006F8FBFF34F8F3B60FEE7414B1B68FB6013
:10453000404B1B683E4A13603E4AFB6813603E4B8B
:104540001B6801333C4A136000F0C4FA3B4B1B6804
:104550003A699A4249D3364B1B681B68002B04D139
:10456000364B4FF0FF321A603FE0314B1B68DB687F
:10457000DB68BB60BB685B687B603A697B689A42BA
:1045800003D22E4A7B6813602FE0BB6804331846C1
:10459000FEF7ACFABB689B6A002B04D0BB681833EB
:1045A0001846FEF7A3FABB68DA6A254B1B689A42E5
:1045B00003D9BB68DB6A224A1360BB68DA6A134618
:1045C0009B0013449B001F4A1A44BB6804331946DE
:1045D0001046FEF72EFABB68DA6A1B4B1B68DB6AD3
:1045E0009A42B8D301237B61B5E7174B1B68DA6A9F
:1045F000144913469B0013449B000B441B68012B7A
:1046000007D901237B6104E0104B1B6801330F4A7B
:1046100013600F4B1B68002B01D001237B617B696A
:1046200018461837BD4680BD04480020E0470020EA
:104630009447002098470020F4470020FC470020C2
:10464000E44700200C43002008430020EC470020F2
:10465000F047002080B485B000AF274B1B68002BCB
:1046600003D0264B01221A6040E0244B00221A603E
:10467000234B1B68FB600FE0FB68002B09D14FF058
:10468000500383F31188BFF36F8FBFF34F8F7B60AD
:10469000FEE7FB68013BFB601A49FA6813469B0082
:1046A00013449B000B441B68002BE5D0FA681346AB
:1046B0009B0013449B00134A1344BB60BB685B68B8
:1046C0005A68BB685A60BB685A68BB6808339A422C
:1046D00004D1BB685B685A68BB685A60BB685B689A
:1046E000DB68094A1360064AFB68136000BF143791
:1046F000BD465DF8047B704704480020F047002069
:10470000E44700200C4300200843002080B584B01B
:1047100000AF786039607B68002B09D14FF05003FF
:1047200083F31188BFF36F8FBFF34F8FFB60FEE7FA
:10473000074B1B68183319467868FEF79EF901216C
:10474000386800F071FA00BF1037BD4680BD00BF69
:104750000843002080B586B000AFF860B9607A6089
:10476000FB68002B09D14FF0500383F31188BFF38E
:104770006F8FBFF34F8F7B61FEE70A4B1B681833C7
:104780001946F868FEF755F97B68002B02D04FF008
:10479000FF33BB607968B86800F046FA00BF18378D
:1047A000BD4680BD0843002080B586B000AF78606C
:1047B0007B68DB68DB683B613B69002B09D14FF00C
:1047C000500383F31188BFF36F8FBFF34F8FFB60EC
:1047D000FEE73B6918331846FEF788F91D4B1B6846
:1047E000002B1DD13B6904331846FEF77FF93B6966
:1047F000DA6A194B1B689A4203D93B69DB6A164A8D
:1048000013603B69DA6A13469B0013449B00134A0A
:104810001A443B69043319461046FEF70AF905E0CD
:104820003B69183319460E48FEF703F93B69DA6A0B
:104830000C4B1B68DB6A9A4205D901237B610A4B4A
:1048400001221A6001E000237B617B69184618375A
:10485000BD4680BD04480020E44700200C430020F2
:104860009C47002008430020F047002080B483B01C
:1048700000AF7860064B1A687B681A60054B1A68AF
:104880007B685A6000BF0C37BD465DF8047B7047FB
:10489000F4470020E047002080B588B000AF786082
:1048A00039607B68002B09D14FF0500383F31188E6
:1048B000BFF36F8FBFF34F8F3B61FEE73B68002B69
:1048C00009D14FF0500383F31188BFF36F8FBFF30B
:1048D0004F8FFB60FEE7FEF759FA1D4B1B68BB616B
:1048E0007B685B68BA69D31A7B613B681B68B3F16C
:1048F000FF3F02D10023FB6123E07B681A68154B60
:104900001B689A4207D07B685A68BB699A4202D8F2
:104910000123FB6115E03B681A687B699A420BD959
:104920003B681A687B69D21A3B681A607868FFF79F
:104930009DFF0023FB6104E03B6800221A60012315
:10494000FB61FEF751FAFB6918462037BD4680BD72
:10495000E0470020F447002080B400AF034B012261
:104960001A6000BFBD465DF8047B7047F047002029
:1049700080B582B000AF786000F052F8064B1B683B
:10498000012BF9D9054B4FF080521A60BFF34F8FBE
:10499000BFF36F8FF0E700BF0C43002004ED00E091
:1049A00080B582B000AF00237B600CE07A681346CC
:1049B0009B0013449B00124A13441846FEF70CF860
:1049C0007B6801337B607B68372BEFD90D48FEF79E
:1049D00003F80D48FEF700F80C48FDF7FDFF0C4802
:1049E000FDF7FAFF0B48FDF7F7FF0B4B054A1A607E
:1049F0000A4B054A1A6000BF0837BD4680BD00BF9C
:104A00000C4300206C470020804700209C4700207A
:104A1000B0470020C8470020944700209847002056
:104A200080B582B000AF19E0FEF7B0F90F4BDB683C
:104A3000DB687B607B6804331846FEF757F80C4B45
:104A40001B68013B0A4A13600A4B1B68013B094A79
:104A50001360FEF7C9F9786800F00EF8054B1B6883
:104A6000002BE1D100BF0837BD4680BDB047002014
:104A7000DC470020C447002080B584B000AF7860D8
:104A80007B6893F85930002B08D17B681B6B184664
:104A9000FEF758FB7868FEF755FB17E07B6893F844
:104AA0005930012B03D17868FEF74CFB0EE07B6890
:104AB00093F85930022B09D04FF0500383F311883B
:104AC000BFF36F8FBFF34F8FFB60FEE700BF103760
:104AD000BD4680BD80B483B000AF0C4B1B681B6823
:104AE000002B04D10A4B4FF0FF321A6008E0074B4D
:104AF0001B68DB68DB687B607B685B68044A13606B
:104B000000BF0C37BD465DF8047B7047944700201A
:104B1000FC47002080B483B000AF0B4B1B68002B18
:104B200002D101237B6008E0084B1B68002B02D1F7
:104B300002237B6001E000237B607B6818460C3712
:104B4000BD465DF8047B7047E8470020044800201C
:104B500080B586B000AF78607B683B6100237B61E5
:104B60007B68002B54D02D4B1B683A699A4209D0C0
:104B70004FF0500383F31188BFF36F8FBFF34F8F54
:104B8000FB60FEE73B691B6D002B09D14FF0500322
:104B900083F31188BFF36F8FBFF34F8FBB60FEE7C6
:104BA0003B691B6D5A1E3B691A653B69DA6A3B69B2
:104BB000DB6C9A422CD03B691B6D002B28D13B69E2
:104BC00004331846FDF792FF3B69DA6C3B69DA6201
:104BD0003B69DB6AC3F138023B699A613B69DA6A77
:104BE0000F4B1B689A4203D93B69DB6A0C4A13607E
:104BF0003B69DA6A13469B0013449B00094A1A4436
:104C00003B69043319461046FDF713FF01237B610E
:104C10007B6918461837BD4680BD00BF0843002099
:104C2000E44700200C43002080B584B000AF7860DA
:104C30003960214B1B68FB60204B1B68043318460E
:104C4000FDF754FF7B68B3F1FF3F0AD13B68002BAF
:104C500007D01A4B1B68043319461948FDF7E9FEC3
:104C600026E0FA687B681344BB60144B1B68BA6883
:104C70005A60BA68FB689A4209D2124B1A680F4B05
:104C80001B68043319461046FDF7F7FE10E00E4B83
:104C90001A680A4B1B68043319461046FDF7EDFEEF
:104CA0000A4B1B68BA689A4202D2084ABB68136072
:104CB00000BF1037BD4680BDE047002008430020FC
:104CC000C84700209847002094470020FC47002058
:104CD00080B58AB004AF00237B6100F0FFFA1C4B63
:104CE0001B68002B21D00023FB600023BB603A1D12
:104CF00007F1080107F10C031846FDF753FE796828
:104D0000BB68FA68029201930223009300230A46CB
:104D100010491148FFF7F6F80246104B1A600F4B86
:104D20001B68002B01D001237B617B69002B09D11B
:104D30004FF0500383F31188BFF36F8FBFF34F8F92
:104D40003B61FEE77B6918461837BD4680BD00BF52
:104D50003848002004610008914E00083C480020BB
:104D600080B58AB000AFF860B9607A603B6000231C
:104D70007B62FB68002B09D14FF0500383F311884D
:104D8000BFF36F8FBFF34F8F3B62FEE7194B1B687A
:104D9000002B2AD0BB683B617B687B61FB68BB61F1
:104DA000BB68052B18DCFFF7B5FE0346022B09D1C3
:104DB000104B186807F1100100233A6BFEF714FC42
:104DC000786212E00B4B186807F1100100230022F3
:104DD000FEF70AFC786208E0064B186807F110013C
:104DE00000233A68FEF7FAFC78627B6A1846283797
:104DF000BD4680BD3848002080B588B002AF7860DD
:104E00003960224B1B68DB68DB687B617B6904339C
:104E10001846FDF76BFE7B6993F8283003F0040316
:104E2000002B21D07B699A697B68D1187B683A682E
:104E3000786900F0D1F80346002B1ED000230093C0
:104E400000237A6800217869FFF78AFF38613B699F
:104E5000002B12D14FF0500383F31188BFF36F8FF3
:104E6000BFF34F8FFB60FEE77B6993F8283023F098
:104E70000103DAB27B6983F828207B691B6A7869B1
:104E8000984700BF1837BD4680BD00BF304800209E
:104E900080B584B000AF786007F10803184600F0D1
:104EA00057F8F860BB681946F86800F003F800F09E
:104EB000D5F8F1E780B584B000AF78603960FFF7CE
:104EC00057FA07F10803184600F066F8F860BB6867
:104ED000002B30D13B68002B0AD17A68FB689A42DC
:104EE00006D8FFF753FAF9687868FFF785FF24E0E2
:104EF0003B68002B08D0134B1B681B68002B01D1AB
:104F0000012300E000233B600F4B18687A68FB68C0
:104F1000D31A3A681946FEF7C1FFFFF737FA03467E
:104F2000002B0AD1094B4FF080521A60BFF34F8F0C
:104F3000BFF36F8F01E0FFF729FA00BF1037BD46BE
:104F400080BD00BF344800203848002004ED00E058
:104F500080B485B000AF78600E4B1B681B68002BD7
:104F600001D1012200E000227B681A607B681B6887
:104F7000002B05D1074B1B68DB681B68FB6001E059
:104F80000023FB60FB6818461437BD465DF8047BC0
:104F9000704700BF3048002080B584B000AF786013
:104FA000FFF790FAF8600B4B1B68FA689A4205D23B
:104FB00000F030F97B6801221A6002E07B68002271
:104FC0001A60044AFB681360FB6818461037BD4638
:104FD00080BD00BF4048002080B586B000AFF860BB
:104FE000B9607A603B6000237B61FB68BA685A60F5
:104FF000FB68FA681A61BA687B689A4212D87A68C4
:105000003B68D21AFB689B699A4202D301237B61F9
:105010001BE0104B1A68FB68043319461046FDF775
:105020002CFD12E07A683B689A4206D2BA683B6867
:105030009A4202D301237B6107E0074B1A68FB68A1
:10504000043319461046FDF718FD7B6918461837DA
:10505000BD4680BD344800203048002080B58EB069
:1050600002AFC6E07B68002B17DA3B1D0433FB62FE
:10507000FB6A002B09D14FF0500383F31188BFF373
:105080006F8FBFF34F8FFB61FEE7FB6A1B68FA6A05
:105090005068FA6A9268114698477B68002BC0F204
:1050A000A880FB68BB62BB6A5B69002B04D0BB6A4B
:1050B00004331846FDF71AFD3B461846FFF76CFF10
:1050C00078627B68092B00F2938001A252F823F0EA
:1050D000F9500008F9500008F95000086B51000819
:1050E0007F510008C7510008F9500008F950000826
:1050F0006B5100087F510008BB6A93F8283043F0D9
:105100000103DAB2BB6A83F82820BA68BB6A9B69DC
:10511000D118BB687A6AB86AFFF75EFF0346002BB6
:1051200067D0BB6A1B6AB86A9847BB6A93F8283095
:1051300003F00403002B5CD0BA68BB6A9B691A4475
:105140000023009300230021B86AFFF709FE3862AC
:105150003B6A002B4DD14FF0500383F31188BFF30E
:105160006F8FBFF34F8FBB61FEE7BB6A93F82830A8
:1051700023F00103DAB2BB6A83F8282039E0BB6A66
:1051800093F8283043F00103DAB2BB6A83F8282091
:10519000BA68BB6A9A61BB6A9B69002B09D14FF060
:1051A000500383F31188BFF36F8FBFF34F8F7B6181
:1051B000FEE7BB6A9A697B6AD1187B6A7A6AB86A29
:1051C000FFF70AFF15E0BB6A93F8283003F00203EB
:1051D000002B03D1B86AFDF7B5FF0AE0BB6A93F86C
:1051E000283023F00103DAB2BB6A83F8282000E0FC
:1051F00000BF074B1B68391D00221846FEF782FBD3
:105200000346002B7FF42EAF00BF3037BD4680BD74
:105210003848002080B588B002AF47E02D4B1B68AE
:10522000DB681B687B612B4B1B68DB68DB683B61C1
:105230003B6904331846FDF759FC3B691B6A386922
:1052400098473B6993F8283003F00403002B2DD0D6
:105250003B699A697B691344FB60FA687B699A42EF
:105260000ED93B69FA685A603B693A691A61194B71
:105270001A683B69043319461046FDF7FEFB15E03A
:105280000023009300237A6900213869FFF768FD45
:10529000B860BB68002B09D14FF0500383F311882D
:1052A000BFF36F8FBFF34F8F3B60FEE7094B1B6867
:1052B0001B68002BB2D1074B1B687B60064B1B6839
:1052C000044A1360044A7B68136000BF1837BD4668
:1052D00080BD00BF304800203448002080B582B037
:1052E00002AFFDF753FD154B1B68002B20D114486E
:1052F000FDF772FB1348FDF76FFB134B104A1A6062
:10530000124B104A1A6000230093114B114A1021CE
:105310000A20FEF793F80246084B1A60074B1B68F9
:10532000002B05D0054B1B680B491846FEF78EFD78
:10533000FDF75AFD00BFBD4680BD00BF38480020C4
:10534000084800201C480020304800203448002035
:10535000E4480020444800200C61000880B485B077
:1053600000AF0346FB71FB79302B02D10023FB73A6
:1053700058E0FB79312B02D10123FB7352E0FB791A
:10538000322B02D10223FB734CE0FB79332B02D189
:105390000323FB7346E0FB79342B02D10423FB7318
:1053A00040E0FB79352B02D10523FB733AE0FB7912
:1053B000362B02D10623FB7334E0FB79372B02D165
:1053C0000723FB732EE0FB79382B02D10823FB73F4
:1053D00028E0FB79392B02D10923FB7322E0FB790A
:1053E000412B02D10A23FB731CE0FB79422B02D133
:1053F0000B23FB7316E0FB79432B02D10C23FB73C9
:1054000010E0FB79442B02D10D23FB730AE0FB79FA
:10541000452B02D10E23FB7304E0FB79462B01D10F
:105420000F23FB73FB7B18461437BD465DF8047BE6
:10543000704780B485B000AF03460A46FB7113463F
:10544000BB71FB791B01DAB2BB791344FB73FB7BA5
:1054500018461437BD465DF8047B704780B485B0AC
:1054600000AF0346FB710B46BB7113467B710023F3
:10547000FB60BB791A04FB791B021A437B79134347
:10548000FB60FB6818461437BD465DF8047B704727
:1054900080B58AB000AF7860FEF76AFF414A414BA1
:1054A0001B6823F0010313603F4A3F4B1B6823F046
:1054B00001031360002220213C48FBF75DFB002321
:1054C0007B6258E04FF400033B621723FB6142E02C
:1054D0000A23BB6102237B6101233B610923FB603B
:1054E000334A7B6A52F823203B6A1340002B16D0C4
:1054F000012220212D48FBF73FFB00BFBB695A1E4C
:10550000BA61002BFAD1002220212848FBF734FB96
:1055100000BF7B695A1E7A61002BFAD115E0012287
:1055200020212248FBF728FB00BF3B695A1E3A6145
:10553000002BFAD1002220211C48FBF71DFB00BFE5
:10554000FB685A1EFA60002BFAD13B6A5B103B6283
:10555000FB69013BFB61FB69002BB9DC01222021C7
:105560001248FBF709FB002220211048FBF704FB3F
:105570007B6A01337B627B685A1C7B6A9A42A1DC9E
:10558000094A094B1B6843F001031360054A054BA8
:105590001B6843F001031360FEF7F8FE00BF2837D5
:1055A000BD4680BD10E000E0000001400000024068
:1055B0003449002080B485B000AF786039603B6822
:1055C000DA007B6801331344FB60FB68013B18463B
:1055D0001437BD465DF8047B7047000090B589B074
:1055E00000AF78607B6801331B781846FFF7B6FE82
:1055F0000346FB617B6802331B781846FFF7AEFE5B
:105600000346BB61B969F869FFF7D4FF78617B682D
:1056100003331B781846FFF7A1FE03461C467B6840
:1056200004331B781846FFF799FE034619462046B7
:10563000FFF7FFFE0346FB747B6805331B781846B3
:10564000FFF78CFE03461C467B6806331B78184622
:10565000FFF784FE034619462046FFF7EAFE03469D
:10566000BB747B6807331B781846FFF777FE034649
:105670001C467B6808331B781846FFF76FFE03460D
:1056800019462046FFF7D5FE03467B747A7CB97C29
:10569000FB7C1846FFF7E2FEF86006497B69FA6872
:1056A00041F823207869FFF7F3FE00BF2437BD4699
:1056B00090BD00BF3449002080B500AFFAF720FF4D
:1056C000204B00221A60204B00221A601F4B002240
:1056D0001A6000F057F800F051F900F025F900F0D9
:1056E000CFF800F0F7F800F0B7F8FCF765FE184ABD
:1056F00005211020FCF79EFF0246164B1A60164A41
:105700000A211020FCF796FF0246144B1A60144A37
:1057100000211448FCF7BAFE0246134B1A60134AE4
:1057200000211348FCF7B2FE0246124B1A60124ADF
:1057300000211248FCF7AAFE0246114B1A60FCF742
:105740006FFEFEE7304F0020344F0020104F002046
:10575000D4610008084F0020EC610008044F0020CD
:1057600068610008895B0008784A00208C610008A5
:10577000FD5B0008284F0020B06100088D5C000828
:105780002C4F002080B594B000AF07F120033022E9
:105790000021184600F09DFC07F10C0300221A605E
:1057A0005A609A60DA601A610023BB60284A284B6D
:1057B0001B6C43F080531364254B1B6C03F0805328
:1057C000BB60BB6800237B60224A224B1B6843F40A
:1057D000404313601F4B1B6803F440437B607B68AE
:1057E00001233B624FF4A0237B620223BB634FF48F
:1057F0008003FB6304233B64A8237B640223BB6414
:105800000723FB6407F120031846FBF7E7F903467B
:10581000002B01D000F064FA0F23FB6002233B61F0
:1058200000237B614FF4A053BB614FF48053FB61B5
:1058300007F10C0305211846FBF740FC0346002B3B
:1058400001D000F04DFA00BF5037BD4680BD00BF0B
:10585000003802400070004080B500AF00220521F2
:105860001720FAF745FF1720FAF75EFF00220521FF
:105870000A20FAF73DFF0A20FAF756FF00BF80BD65
:1058800080B582B000AF3B4600221A605A600F4BD1
:105890000F4A1A600D48FAF755FF0346002B01D056
:1058A00000F01EFA00233B6000237B603B46002291
:1058B00019460648FAF768FF0346002B01D000F0AE
:1058C0000FFA00BF0837BD4680BD00BF144F00204F
:1058D0000074004080B500AF114B124A1A60104BA3
:1058E0004FF4E1325A600E4B00229A600C4B0022BA
:1058F000DA600B4B00221A61094B0C225A61084BEB
:1059000000229A61064B0022DA610548FCF738F85C
:105910000346002B01D000F0E3F900BF80BD00BFBB
:105920007C4A00200078004080B500AF114B124A3D
:105930001A60104B4FF4E1325A600E4B00229A600D
:105940000C4B0022DA600B4B00221A61094B0C222F
:105950005A61084B00229A61064B0022DA61054821
:10596000FCF70EF80346002B01D000F0B9F900BF98
:1059700080BD00BFBC4A00200048004080B58CB00C
:1059800000AF07F11C0300221A605A609A60DA60C7
:105990001A610023BB61624A614B1B6B43F0040335
:1059A00013635F4B1B6B03F00403BB61BB690023F4
:1059B0007B615B4A5A4B1B6B43F080031363584B6C
:1059C0001B6B03F080037B617B6900233B61544ABE
:1059D000534B1B6B43F001031363514B1B6B03F0E1
:1059E00001033B613B690023FB604D4A4C4B1B6B41
:1059F00043F0020313634A4B1B6B03F00203FB608B
:105A0000FB680023BB60464A454B1B6B43F0100309
:105A10001363434B1B6B03F01003BB60BB68002395
:105A20007B603F4A3E4B1B6B43F0080313633C4BC8
:105A30001B6B03F008037B607B6800233B60384AE4
:105A4000374B1B6B43F040031363354B1B6B03F069
:105A500040033B603B68002220213248FBF78CF872
:105A6000002244F281013048FBF786F800224021F1
:105A70002E48FBF781F84FF40053FB612C4B3B623F
:105A800000237B6207F11C0319462A48FAF7CAFE75
:105A90002023FB6101233B6200237B620023BB6266
:105AA00007F11C0319461F48FAF7BCFE44F28103B4
:105AB000FB6101233B6200237B620023BB6207F191
:105AC0001C0319461848FAF7ADFE4023FB61012379
:105AD0003B6200237B620023BB6207F11C03194673
